{
  "_format": "hh-sol-artifact-1",
  "contractName": "MedicalRecordsConsent",
  "sourceName": "contracts/MedicalRecordsConsent.sol",
  "abi": [
    {
      "anonymous": false,
      "inputs": [
        {
          "indexed": true,
          "internalType": "address",
          "name": "patient",
          "type": "address"
        },
        {
          "indexed": true,
          "internalType": "address",
          "name": "doctor",
          "type": "address"
        },
        {
          "indexed": false,
          "internalType": "uint256",
          "name": "expiry",
          "type": "uint256"
        }
      ],
      "name": "AccessGranted",
      "type": "event"
    },
    {
      "anonymous": false,
      "inputs": [
        {
          "indexed": true,
          "internalType": "address",
          "name": "doctor",
          "type": "address"
        },
        {
          "indexed": true,
          "internalType": "address",
          "name": "patient",
          "type": "address"
        }
      ],
      "name": "AccessRequested",
      "type": "event"
    },
    {
      "anonymous": false,
      "inputs": [
        {
          "indexed": true,
          "internalType": "address",
          "name": "patient",
          "type": "address"
        },
        {
          "indexed": true,
          "internalType": "address",
          "name": "doctor",
          "type": "address"
        }
      ],
      "name": "AccessRevoked",
      "type": "event"
    },
    {
      "anonymous": false,
      "inputs": [
        {
          "indexed": true,
          "internalType": "address",
          "name": "patient",
          "type": "address"
        },
        {
          "indexed": true,
          "internalType": "address",
          "name": "staff",
          "type": "address"
        },
        {
          "indexed": false,
          "internalType": "string",
          "name": "cid",
          "type": "string"
        }
      ],
      "name": "RecordUploaded",
      "type": "event"
    },
    {
      "inputs": [
        {
          "internalType": "address",
          "name": "",
          "type": "address"
        },
        {
          "internalType": "address",
          "name": "",
          "type": "address"
        }
      ],
      "name": "accessPermissions",
      "outputs": [
        {
          "internalType": "bool",
          "name": "isAllowed",
          "type": "bool"
        },
        {
          "internalType": "uint256",
          "name": "expiry",
          "type": "uint256"
        }
      ],
      "stateMutability": "view",
      "type": "function"
    },
    {
      "inputs": [
        {
          "internalType": "address",
          "name": "doctor",
          "type": "address"
        },
        {
          "internalType": "uint256",
          "name": "durationInSeconds",
          "type": "uint256"
        }
      ],
      "name": "approveRequest",
      "outputs": [],
      "stateMutability": "nonpayable",
      "type": "function"
    },
    {
      "inputs": [],
      "name": "getMyRecords",
      "outputs": [
        {
          "internalType": "string[]",
          "name": "",
          "type": "string[]"
        }
      ],
      "stateMutability": "view",
      "type": "function"
    },
    {
      "inputs": [
        {
          "internalType": "address",
          "name": "patient",
          "type": "address"
        }
      ],
      "name": "getPatientRecords",
      "outputs": [
        {
          "internalType": "string[]",
          "name": "",
          "type": "string[]"
        }
      ],
      "stateMutability": "view",
      "type": "function"
    },
    {
      "inputs": [],
      "name": "getPendingRequests",
      "outputs": [
        {
          "internalType": "address[]",
          "name": "",
          "type": "address[]"
        }
      ],
      "stateMutability": "view",
      "type": "function"
    },
    {
      "inputs": [
        {
          "internalType": "address",
          "name": "",
          "type": "address"
        },
        {
          "internalType": "address",
          "name": "",
          "type": "address"
        }
      ],
      "name": "hasPendingRequest",
      "outputs": [
        {
          "internalType": "bool",
          "name": "",
          "type": "bool"
        }
      ],
      "stateMutability": "view",
      "type": "function"
    },
    {
      "inputs": [
        {
          "internalType": "address",
          "name": "",
          "type": "address"
        },
        {
          "internalType": "uint256",
          "name": "",
          "type": "uint256"
        }
      ],
      "name": "patientRecords",
      "outputs": [
        {
          "internalType": "string",
          "name": "",
          "type": "string"
        }
      ],
      "stateMutability": "view",
      "type": "function"
    },
    {
      "inputs": [
        {
          "internalType": "address",
          "name": "",
          "type": "address"
        },
        {
          "internalType": "uint256",
          "name": "",
          "type": "uint256"
        }
      ],
      "name": "pendingRequests",
      "outputs": [
        {
          "internalType": "address",
          "name": "",
          "type": "address"
        }
      ],
      "stateMutability": "view",
      "type": "function"
    },
    {
      "inputs": [],
      "name": "registerAsDoctor",
      "outputs": [],
      "stateMutability": "nonpayable",
      "type": "function"
    },
    {
      "inputs": [],
      "name": "registerAsPatient",
      "outputs": [],
      "stateMutability": "nonpayable",
      "type": "function"
    },
    {
      "inputs": [],
      "name": "registerAsStaff",
      "outputs": [],
      "stateMutability": "nonpayable",
      "type": "function"
    },
    {
      "inputs": [
        {
          "internalType": "address",
          "name": "patient",
          "type": "address"
        }
      ],
      "name": "requestAccess",
      "outputs": [],
      "stateMutability": "nonpayable",
      "type": "function"
    },
    {
      "inputs": [
        {
          "internalType": "address",
          "name": "doctor",
          "type": "address"
        }
      ],
      "name": "revokeAccess",
      "outputs": [],
      "stateMutability": "nonpayable",
      "type": "function"
    },
    {
      "inputs": [
        {
          "internalType": "address",
          "name": "",
          "type": "address"
        }
      ],
      "name": "roles",
      "outputs": [
        {
          "internalType": "enum MedicalRecordsConsent.Role",
          "name": "",
          "type": "uint8"
        }
      ],
      "stateMutability": "view",
      "type": "function"
    },
    {
      "inputs": [
        {
          "internalType": "string",
          "name": "cid",
          "type": "string"
        }
      ],
      "name": "uploadRecordByPatient",
      "outputs": [],
      "stateMutability": "nonpayable",
      "type": "function"
    },
    {
      "inputs": [
        {
          "internalType": "address",
          "name": "patient",
          "type": "address"
        },
        {
          "internalType": "string",
          "name": "cid",
          "type": "string"
        }
      ],
      "name": "uploadRecordByStaff",
      "outputs": [],
      "stateMutability": "nonpayable",
      "type": "function"
    }
  ],
  "bytecode": "0x6080604052348015600f57600080fd5b5061294c8061001f6000396000f3fe608060405234801561001057600080fd5b50600436106101005760003560e01c806380a1f71211610097578063993746421161006657806399374642146102aa578063a99ad4ee146102da578063c5fc26bc146102e4578063e76637ce146102ee57610100565b806380a1f712146102245780638207997c1461024257806385e685311461025e57806394f0df611461027a57610100565b8063488ff1c8116100d3578063488ff1c81461019d57806364b3b525146101cd5780636ba7fe7f146101fe57806370cf7dda1461020857610100565b8063022cb2711461010557806318bd4847146101215780633e3328e21461015157806347ad8c871461016d575b600080fd5b61011f600480360381019061011a9190611bbd565b61030c565b005b61013b60048036038101906101369190611bbd565b6106ce565b6040516101489190611d3c565b60405180910390f35b61016b60048036038101906101669190611d94565b6109d6565b005b61018760048036038101906101829190611dd4565b610c9d565b6040516101949190611e2f565b60405180910390f35b6101b760048036038101906101b29190611d94565b610ccc565b6040516101c49190611e59565b60405180910390f35b6101e760048036038101906101e29190611dd4565b610d1a565b6040516101f5929190611e83565b60405180910390f35b610206610d58565b005b610222600480360381019061021d9190611f11565b610dc1565b005b61022c61100d565b604051610239919061201c565b60405180910390f35b61025c6004803603810190610257919061203e565b61118c565b005b61027860048036038101906102739190611bbd565b6113d9565b005b610294600480360381019061028f9190611d94565b611582565b6040516102a191906120e8565b60405180910390f35b6102c460048036038101906102bf9190611bbd565b61163b565b6040516102d19190612181565b60405180910390f35b6102e261165b565b005b6102ec6116c4565b005b6102f661172d565b6040516103039190611d3c565b60405180910390f35b60028060038111156103215761032061210a565b5b6000803373ffffffffffffffffffffffffffffffffffffffff1673ffffffffffffffffffffffffffffffffffffffff16815260200190815260200160002060009054906101000a900460ff16600381111561037f5761037e61210a565b5b146103bf576040517f08c379a00000000000000000000000000000000000000000000000000000000081526004016103b6906121e8565b60405180910390fd5b600160038111156103d3576103d261210a565b5b6000808473ffffffffffffffffffffffffffffffffffffffff1673ffffffffffffffffffffffffffffffffffffffff16815260200190815260200160002060009054906101000a900460ff1660038111156104315761043061210a565b5b14610471576040517f08c379a000000000000000000000000000000000000000000000000000000000815260040161046890612254565b60405180910390fd5b600460008373ffffffffffffffffffffffffffffffffffffffff1673ffffffffffffffffffffffffffffffffffffffff16815260200190815260200160002060003373ffffffffffffffffffffffffffffffffffffffff1673ffffffffffffffffffffffffffffffffffffffff16815260200190815260200160002060009054906101000a900460ff161561053b576040517f08c379a0000000000000000000000000000000000000000000000000000000008152600401610532906122c0565b60405180910390fd5b600360008373ffffffffffffffffffffffffffffffffffffffff1673ffffffffffffffffffffffffffffffffffffffff168152602001908152602001600020339080600181540180825580915050600190039060005260206000200160009091909190916101000a81548173ffffffffffffffffffffffffffffffffffffffff021916908373ffffffffffffffffffffffffffffffffffffffff1602179055506001600460008473ffffffffffffffffffffffffffffffffffffffff1673ffffffffffffffffffffffffffffffffffffffff16815260200190815260200160002060003373ffffffffffffffffffffffffffffffffffffffff1673ffffffffffffffffffffffffffffffffffffffff16815260200190815260200160002060006101000a81548160ff0219169083151502179055508173ffffffffffffffffffffffffffffffffffffffff163373ffffffffffffffffffffffffffffffffffffffff167f40c7749b16fdfb0d550f20273a7767875059d647af94f5a9610c63ad73dcc79f60405160405180910390a35050565b606060028060038111156106e5576106e461210a565b5b6000803373ffffffffffffffffffffffffffffffffffffffff1673ffffffffffffffffffffffffffffffffffffffff16815260200190815260200160002060009054906101000a900460ff1660038111156107435761074261210a565b5b14610783576040517f08c379a000000000000000000000000000000000000000000000000000000000815260040161077a906121e8565b60405180910390fd5b6000600260008573ffffffffffffffffffffffffffffffffffffffff1673ffffffffffffffffffffffffffffffffffffffff16815260200190815260200160002060003373ffffffffffffffffffffffffffffffffffffffff1673ffffffffffffffffffffffffffffffffffffffff1681526020019081526020016000206040518060400160405290816000820160009054906101000a900460ff1615151515815260200160018201548152505090508060000151610877576040517f08c379a000000000000000000000000000000000000000000000000000000000815260040161086e9061232c565b60405180910390fd5b80602001514211156108be576040517f08c379a00000000000000000000000000000000000000000000000000000000081526004016108b590612398565b60405180910390fd5b600160008573ffffffffffffffffffffffffffffffffffffffff1673ffffffffffffffffffffffffffffffffffffffff168152602001908152602001600020805480602002602001604051908101604052809291908181526020016000905b828210156109c957838290600052602060002001805461093c906123e7565b80601f0160208091040260200160405190810160405280929190818152602001828054610968906123e7565b80156109b55780601f1061098a576101008083540402835291602001916109b5565b820191906000526020600020905b81548152906001019060200180831161099857829003601f168201915b50505050508152602001906001019061091d565b5050505092505050919050565b60018060038111156109eb576109ea61210a565b5b6000803373ffffffffffffffffffffffffffffffffffffffff1673ffffffffffffffffffffffffffffffffffffffff16815260200190815260200160002060009054906101000a900460ff166003811115610a4957610a4861210a565b5b14610a89576040517f08c379a0000000000000000000000000000000000000000000000000000000008152600401610a80906121e8565b60405180910390fd5b600460003373ffffffffffffffffffffffffffffffffffffffff1673ffffffffffffffffffffffffffffffffffffffff16815260200190815260200160002060008473ffffffffffffffffffffffffffffffffffffffff1673ffffffffffffffffffffffffffffffffffffffff16815260200190815260200160002060009054906101000a900460ff16610b52576040517f08c379a0000000000000000000000000000000000000000000000000000000008152600401610b4990612464565b60405180910390fd5b60405180604001604052806001151581526020018342610b7291906124b3565b815250600260003373ffffffffffffffffffffffffffffffffffffffff1673ffffffffffffffffffffffffffffffffffffffff16815260200190815260200160002060008573ffffffffffffffffffffffffffffffffffffffff1673ffffffffffffffffffffffffffffffffffffffff16815260200190815260200160002060008201518160000160006101000a81548160ff02191690831515021790555060208201518160010155905050610c2833846118f7565b8273ffffffffffffffffffffffffffffffffffffffff163373ffffffffffffffffffffffffffffffffffffffff167f65d0cc1e52d49938ca4ad9f423c79c1b84d914b9a683fbc5d3f93ac3cc5635f58442610c8391906124b3565b604051610c9091906124e7565b60405180910390a3505050565b60046020528160005260406000206020528060005260406000206000915091509054906101000a900460ff1681565b60036020528160005260406000208181548110610ce857600080fd5b906000526020600020016000915091509054906101000a900473ffffffffffffffffffffffffffffffffffffffff1681565b6002602052816000526040600020602052806000526040600020600091509150508060000160009054906101000a900460ff16908060010154905082565b60026000803373ffffffffffffffffffffffffffffffffffffffff1673ffffffffffffffffffffffffffffffffffffffff16815260200190815260200160002060006101000a81548160ff02191690836003811115610dba57610db961210a565b5b0217905550565b6001806003811115610dd657610dd561210a565b5b6000803373ffffffffffffffffffffffffffffffffffffffff1673ffffffffffffffffffffffffffffffffffffffff16815260200190815260200160002060009054906101000a900460ff166003811115610e3457610e3361210a565b5b14610e74576040517f08c379a0000000000000000000000000000000000000000000000000000000008152600401610e6b906121e8565b60405180910390fd5b60016003811115610e8857610e8761210a565b5b6000803373ffffffffffffffffffffffffffffffffffffffff1673ffffffffffffffffffffffffffffffffffffffff16815260200190815260200160002060009054906101000a900460ff166003811115610ee657610ee561210a565b5b14610f26576040517f08c379a0000000000000000000000000000000000000000000000000000000008152600401610f1d9061254e565b60405180910390fd5b600160003373ffffffffffffffffffffffffffffffffffffffff1673ffffffffffffffffffffffffffffffffffffffff168152602001908152602001600020838390918060018154018082558091505060019003906000526020600020016000909192909192909192909192509182610fa0929190612754565b503373ffffffffffffffffffffffffffffffffffffffff163373ffffffffffffffffffffffffffffffffffffffff167fe6d615acf54736ffca7532772615005f30a970cf028f6ea39b7ed223099535608585604051611000929190612860565b60405180910390a3505050565b606060018060038111156110245761102361210a565b5b6000803373ffffffffffffffffffffffffffffffffffffffff1673ffffffffffffffffffffffffffffffffffffffff16815260200190815260200160002060009054906101000a900460ff1660038111156110825761108161210a565b5b146110c2576040517f08c379a00000000000000000000000000000000000000000000000000000000081526004016110b9906121e8565b60405180910390fd5b600360003373ffffffffffffffffffffffffffffffffffffffff1673ffffffffffffffffffffffffffffffffffffffff16815260200190815260200160002080548060200260200160405190810160405280929190818152602001828054801561118157602002820191906000526020600020905b8160009054906101000a900473ffffffffffffffffffffffffffffffffffffffff1673ffffffffffffffffffffffffffffffffffffffff1681526020019060010190808311611137575b505050505091505090565b60038060038111156111a1576111a061210a565b5b6000803373ffffffffffffffffffffffffffffffffffffffff1673ffffffffffffffffffffffffffffffffffffffff16815260200190815260200160002060009054906101000a900460ff1660038111156111ff576111fe61210a565b5b1461123f576040517f08c379a0000000000000000000000000000000000000000000000000000000008152600401611236906121e8565b60405180910390fd5b600160038111156112535761125261210a565b5b6000808673ffffffffffffffffffffffffffffffffffffffff1673ffffffffffffffffffffffffffffffffffffffff16815260200190815260200160002060009054906101000a900460ff1660038111156112b1576112b061210a565b5b146112f1576040517f08c379a00000000000000000000000000000000000000000000000000000000081526004016112e89061254e565b60405180910390fd5b600160008573ffffffffffffffffffffffffffffffffffffffff1673ffffffffffffffffffffffffffffffffffffffff16815260200190815260200160002083839091806001815401808255809150506001900390600052602060002001600090919290919290919290919250918261136b929190612754565b503373ffffffffffffffffffffffffffffffffffffffff168473ffffffffffffffffffffffffffffffffffffffff167fe6d615acf54736ffca7532772615005f30a970cf028f6ea39b7ed2230995356085856040516113cb929190612860565b60405180910390a350505050565b60018060038111156113ee576113ed61210a565b5b6000803373ffffffffffffffffffffffffffffffffffffffff1673ffffffffffffffffffffffffffffffffffffffff16815260200190815260200160002060009054906101000a900460ff16600381111561144c5761144b61210a565b5b1461148c576040517f08c379a0000000000000000000000000000000000000000000000000000000008152600401611483906121e8565b60405180910390fd5b6000600260003373ffffffffffffffffffffffffffffffffffffffff1673ffffffffffffffffffffffffffffffffffffffff16815260200190815260200160002060008473ffffffffffffffffffffffffffffffffffffffff1673ffffffffffffffffffffffffffffffffffffffff16815260200190815260200160002060000160006101000a81548160ff0219169083151502179055508173ffffffffffffffffffffffffffffffffffffffff163373ffffffffffffffffffffffffffffffffffffffff167f825c8be24eb0df19500f63e86c29e7d0d951e73056b889b891d85e40938d9b6e60405160405180910390a35050565b6001602052816000526040600020818154811061159e57600080fd5b906000526020600020016000915091505080546115ba906123e7565b80601f01602080910402602001604051908101604052809291908181526020018280546115e6906123e7565b80156116335780601f1061160857610100808354040283529160200191611633565b820191906000526020600020905b81548152906001019060200180831161161657829003601f168201915b505050505081565b60006020528060005260406000206000915054906101000a900460ff1681565b60016000803373ffffffffffffffffffffffffffffffffffffffff1673ffffffffffffffffffffffffffffffffffffffff16815260200190815260200160002060006101000a81548160ff021916908360038111156116bd576116bc61210a565b5b0217905550565b60036000803373ffffffffffffffffffffffffffffffffffffffff1673ffffffffffffffffffffffffffffffffffffffff16815260200190815260200160002060006101000a81548160ff021916908360038111156117265761172561210a565b5b0217905550565b606060018060038111156117445761174361210a565b5b6000803373ffffffffffffffffffffffffffffffffffffffff1673ffffffffffffffffffffffffffffffffffffffff16815260200190815260200160002060009054906101000a900460ff1660038111156117a2576117a161210a565b5b146117e2576040517f08c379a00000000000000000000000000000000000000000000000000000000081526004016117d9906121e8565b60405180910390fd5b600160003373ffffffffffffffffffffffffffffffffffffffff1673ffffffffffffffffffffffffffffffffffffffff168152602001908152602001600020805480602002602001604051908101604052809291908181526020016000905b828210156118ed578382906000526020600020018054611860906123e7565b80601f016020809104026020016040519081016040528092919081815260200182805461188c906123e7565b80156118d95780601f106118ae576101008083540402835291602001916118d9565b820191906000526020600020905b8154815290600101906020018083116118bc57829003601f168201915b505050505081526020019060010190611841565b5050505091505090565b6000600360008473ffffffffffffffffffffffffffffffffffffffff1673ffffffffffffffffffffffffffffffffffffffff168152602001908152602001600020905060005b8180549050811015611aba578273ffffffffffffffffffffffffffffffffffffffff1682828154811061197357611972612884565b5b9060005260206000200160009054906101000a900473ffffffffffffffffffffffffffffffffffffffff1673ffffffffffffffffffffffffffffffffffffffff1603611aad5781600183805490506119cb91906128b3565b815481106119dc576119db612884565b5b9060005260206000200160009054906101000a900473ffffffffffffffffffffffffffffffffffffffff16828281548110611a1a57611a19612884565b5b9060005260206000200160006101000a81548173ffffffffffffffffffffffffffffffffffffffff021916908373ffffffffffffffffffffffffffffffffffffffff16021790555081805480611a7357611a726128e7565b5b6001900381819060005260206000200160006101000a81549073ffffffffffffffffffffffffffffffffffffffff02191690559055611aba565b808060010191505061193d565b506000600460008573ffffffffffffffffffffffffffffffffffffffff1673ffffffffffffffffffffffffffffffffffffffff16815260200190815260200160002060008473ffffffffffffffffffffffffffffffffffffffff1673ffffffffffffffffffffffffffffffffffffffff16815260200190815260200160002060006101000a81548160ff021916908315150217905550505050565b600080fd5b600080fd5b600073ffffffffffffffffffffffffffffffffffffffff82169050919050565b6000611b8a82611b5f565b9050919050565b611b9a81611b7f565b8114611ba557600080fd5b50565b600081359050611bb781611b91565b92915050565b600060208284031215611bd357611bd2611b55565b5b6000611be184828501611ba8565b91505092915050565b600081519050919050565b600082825260208201905092915050565b6000819050602082019050919050565b600081519050919050565b600082825260208201905092915050565b60005b83811015611c50578082015181840152602081019050611c35565b60008484015250505050565b6000601f19601f8301169050919050565b6000611c7882611c16565b611c828185611c21565b9350611c92818560208601611c32565b611c9b81611c5c565b840191505092915050565b6000611cb28383611c6d565b905092915050565b6000602082019050919050565b6000611cd282611bea565b611cdc8185611bf5565b935083602082028501611cee85611c06565b8060005b85811015611d2a5784840389528151611d0b8582611ca6565b9450611d1683611cba565b925060208a01995050600181019050611cf2565b50829750879550505050505092915050565b60006020820190508181036000830152611d568184611cc7565b905092915050565b6000819050919050565b611d7181611d5e565b8114611d7c57600080fd5b50565b600081359050611d8e81611d68565b92915050565b60008060408385031215611dab57611daa611b55565b5b6000611db985828601611ba8565b9250506020611dca85828601611d7f565b9150509250929050565b60008060408385031215611deb57611dea611b55565b5b6000611df985828601611ba8565b9250506020611e0a85828601611ba8565b9150509250929050565b60008115159050919050565b611e2981611e14565b82525050565b6000602082019050611e446000830184611e20565b92915050565b611e5381611b7f565b82525050565b6000602082019050611e6e6000830184611e4a565b92915050565b611e7d81611d5e565b82525050565b6000604082019050611e986000830185611e20565b611ea56020830184611e74565b9392505050565b600080fd5b600080fd5b600080fd5b60008083601f840112611ed157611ed0611eac565b5b8235905067ffffffffffffffff811115611eee57611eed611eb1565b5b602083019150836001820283011115611f0a57611f09611eb6565b5b9250929050565b60008060208385031215611f2857611f27611b55565b5b600083013567ffffffffffffffff811115611f4657611f45611b5a565b5b611f5285828601611ebb565b92509250509250929050565b600081519050919050565b600082825260208201905092915050565b6000819050602082019050919050565b611f9381611b7f565b82525050565b6000611fa58383611f8a565b60208301905092915050565b6000602082019050919050565b6000611fc982611f5e565b611fd38185611f69565b9350611fde83611f7a565b8060005b8381101561200f578151611ff68882611f99565b975061200183611fb1565b925050600181019050611fe2565b5085935050505092915050565b600060208201905081810360008301526120368184611fbe565b905092915050565b60008060006040848603121561205757612056611b55565b5b600061206586828701611ba8565b935050602084013567ffffffffffffffff81111561208657612085611b5a565b5b61209286828701611ebb565b92509250509250925092565b600082825260208201905092915050565b60006120ba82611c16565b6120c4818561209e565b93506120d4818560208601611c32565b6120dd81611c5c565b840191505092915050565b6000602082019050818103600083015261210281846120af565b905092915050565b7f4e487b7100000000000000000000000000000000000000000000000000000000600052602160045260246000fd5b6004811061214a5761214961210a565b5b50565b600081905061215b82612139565b919050565b600061216b8261214d565b9050919050565b61217b81612160565b82525050565b60006020820190506121966000830184612172565b92915050565b7f4163636573732064656e6965643a20496e76616c696420726f6c650000000000600082015250565b60006121d2601b8361209e565b91506121dd8261219c565b602082019050919050565b60006020820190508181036000830152612201816121c5565b9050919050565b7f496e76616c69642070617469656e740000000000000000000000000000000000600082015250565b600061223e600f8361209e565b915061224982612208565b602082019050919050565b6000602082019050818103600083015261226d81612231565b9050919050565b7f5265717565737420616c72656164792073656e74000000000000000000000000600082015250565b60006122aa60148361209e565b91506122b582612274565b602082019050919050565b600060208201905081810360008301526122d98161229d565b9050919050565b7f416363657373206e6f74206772616e7465642062792070617469656e74000000600082015250565b6000612316601d8361209e565b9150612321826122e0565b602082019050919050565b6000602082019050818103600083015261234581612309565b9050919050565b7f4163636573732065787069726564000000000000000000000000000000000000600082015250565b6000612382600e8361209e565b915061238d8261234c565b602082019050919050565b600060208201905081810360008301526123b181612375565b9050919050565b7f4e487b7100000000000000000000000000000000000000000000000000000000600052602260045260246000fd5b600060028204905060018216806123ff57607f821691505b602082108103612412576124116123b8565b5b50919050565b7f4e6f2070656e64696e6720726571756573742066726f6d20646f63746f720000600082015250565b600061244e601e8361209e565b915061245982612418565b602082019050919050565b6000602082019050818103600083015261247d81612441565b9050919050565b7f4e487b7100000000000000000000000000000000000000000000000000000000600052601160045260246000fd5b60006124be82611d5e565b91506124c983611d5e565b92508282019050808211156124e1576124e0612484565b5b92915050565b60006020820190506124fc6000830184611e74565b92915050565b7f4e6f74206120726567697374657265642070617469656e740000000000000000600082015250565b600061253860188361209e565b915061254382612502565b602082019050919050565b600060208201905081810360008301526125678161252b565b9050919050565b600082905092915050565b7f4e487b7100000000000000000000000000000000000000000000000000000000600052604160045260246000fd5b60008190508160005260206000209050919050565b60006020601f8301049050919050565b600082821b905092915050565b60006008830261260a7fffffffffffffffffffffffffffffffffffffffffffffffffffffffffffffffff826125cd565b61261486836125cd565b95508019841693508086168417925050509392505050565b6000819050919050565b600061265161264c61264784611d5e565b61262c565b611d5e565b9050919050565b6000819050919050565b61266b83612636565b61267f61267782612658565b8484546125da565b825550505050565b600090565b612694612687565b61269f818484612662565b505050565b5b818110156126c3576126b860008261268c565b6001810190506126a5565b5050565b601f821115612708576126d9816125a8565b6126e2846125bd565b810160208510156126f1578190505b6127056126fd856125bd565b8301826126a4565b50505b505050565b600082821c905092915050565b600061272b6000198460080261270d565b1980831691505092915050565b6000612744838361271a565b9150826002028217905092915050565b61275e838361256e565b67ffffffffffffffff81111561277757612776612579565b5b61278182546123e7565b61278c8282856126c7565b6000601f8311600181146127bb57600084156127a9578287013590505b6127b38582612738565b86555061281b565b601f1984166127c9866125a8565b60005b828110156127f1578489013582556001820191506020850194506020810190506127cc565b8683101561280e578489013561280a601f89168261271a565b8355505b6001600288020188555050505b50505050505050565b82818337600083830152505050565b600061283f838561209e565b935061284c838584612824565b61285583611c5c565b840190509392505050565b6000602082019050818103600083015261287b818486612833565b90509392505050565b7f4e487b7100000000000000000000000000000000000000000000000000000000600052603260045260246000fd5b60006128be82611d5e565b91506128c983611d5e565b92508282039050818111156128e1576128e0612484565b5b92915050565b7f4e487b7100000000000000000000000000000000000000000000000000000000600052603160045260246000fdfea264697066735822122080e186398be631df5e2632fcbc3861baa6c5462cf4df78b2c9c7f7cbf0aed61464736f6c634300081c0033",
  "linkReferences": {},
  "deployedLinkReferences": {}
}